{
  "_format": "hh-sol-artifact-1",
  "contractName": "KYC",
  "sourceName": "contracts/KYC.sol",
  "abi": [
    {
      "inputs": [],
      "stateMutability": "nonpayable",
      "type": "constructor"
    },
    {
      "inputs": [
        {
          "internalType": "string",
          "name": "_bankName",
          "type": "string"
        },
        {
          "internalType": "address",
          "name": "_bankAddress",
          "type": "address"
        },
        {
          "internalType": "string",
          "name": "_regNumber",
          "type": "string"
        }
      ],
      "name": "addBank",
      "outputs": [
        {
          "internalType": "uint8",
          "name": "",
          "type": "uint8"
        }
      ],
      "stateMutability": "nonpayable",
      "type": "function"
    },
    {
      "inputs": [
        {
          "internalType": "string",
          "name": "_userName",
          "type": "string"
        },
        {
          "internalType": "string",
          "name": "_data",
          "type": "string"
        }
      ],
      "name": "addCustomer",
      "outputs": [
        {
          "internalType": "uint8",
          "name": "",
          "type": "uint8"
        }
      ],
      "stateMutability": "nonpayable",
      "type": "function"
    },
    {
      "inputs": [
        {
          "internalType": "string",
          "name": "_userName",
          "type": "string"
        },
        {
          "internalType": "string",
          "name": "_dataHash",
          "type": "string"
        }
      ],
      "name": "addKYCRequest",
      "outputs": [
        {
          "internalType": "uint8",
          "name": "",
          "type": "uint8"
        }
      ],
      "stateMutability": "nonpayable",
      "type": "function"
    },
    {
      "inputs": [
        {
          "internalType": "uint256",
          "name": "",
          "type": "uint256"
        }
      ],
      "name": "banklist",
      "outputs": [
        {
          "internalType": "address",
          "name": "",
          "type": "address"
        }
      ],
      "stateMutability": "view",
      "type": "function"
    },
    {
      "inputs": [
        {
          "internalType": "string",
          "name": "_userName",
          "type": "string"
        }
      ],
      "name": "downvoteCustomer",
      "outputs": [
        {
          "internalType": "uint8",
          "name": "",
          "type": "uint8"
        }
      ],
      "stateMutability": "nonpayable",
      "type": "function"
    },
    {
      "inputs": [
        {
          "internalType": "address",
          "name": "_bankAddress",
          "type": "address"
        }
      ],
      "name": "getBankComplaints",
      "outputs": [
        {
          "internalType": "uint256",
          "name": "",
          "type": "uint256"
        }
      ],
      "stateMutability": "view",
      "type": "function"
    },
    {
      "inputs": [
        {
          "internalType": "address",
          "name": "_bankAddress",
          "type": "address"
        },
        {
          "internalType": "bool",
          "name": "_isAllowed",
          "type": "bool"
        }
      ],
      "name": "isAllowedToVote",
      "outputs": [
        {
          "internalType": "uint8",
          "name": "",
          "type": "uint8"
        }
      ],
      "stateMutability": "nonpayable",
      "type": "function"
    },
    {
      "inputs": [
        {
          "internalType": "string",
          "name": "_userName",
          "type": "string"
        },
        {
          "internalType": "string",
          "name": "_data",
          "type": "string"
        }
      ],
      "name": "modifyCustomer",
      "outputs": [
        {
          "internalType": "uint8",
          "name": "",
          "type": "uint8"
        }
      ],
      "stateMutability": "nonpayable",
      "type": "function"
    },
    {
      "inputs": [
        {
          "internalType": "address",
          "name": "_bankAddress",
          "type": "address"
        }
      ],
      "name": "removeBank",
      "outputs": [
        {
          "internalType": "uint8",
          "name": "",
          "type": "uint8"
        }
      ],
      "stateMutability": "nonpayable",
      "type": "function"
    },
    {
      "inputs": [
        {
          "internalType": "string",
          "name": "_userName",
          "type": "string"
        }
      ],
      "name": "removeKycRequest",
      "outputs": [
        {
          "internalType": "uint8",
          "name": "",
          "type": "uint8"
        }
      ],
      "stateMutability": "nonpayable",
      "type": "function"
    },
    {
      "inputs": [
        {
          "internalType": "address",
          "name": "_bankAddress",
          "type": "address"
        },
        {
          "internalType": "string",
          "name": "_bankName",
          "type": "string"
        }
      ],
      "name": "reportBank",
      "outputs": [
        {
          "internalType": "uint8",
          "name": "",
          "type": "uint8"
        }
      ],
      "stateMutability": "nonpayable",
      "type": "function"
    },
    {
      "inputs": [
        {
          "internalType": "string",
          "name": "_userName",
          "type": "string"
        }
      ],
      "name": "upvoteCustomer",
      "outputs": [
        {
          "internalType": "uint8",
          "name": "",
          "type": "uint8"
        }
      ],
      "stateMutability": "nonpayable",
      "type": "function"
    },
    {
      "inputs": [
        {
          "internalType": "address",
          "name": "_bankAddress",
          "type": "address"
        }
      ],
      "name": "viewBankDetails",
      "outputs": [
        {
          "components": [
            {
              "internalType": "string",
              "name": "name",
              "type": "string"
            },
            {
              "internalType": "address",
              "name": "ethAddress",
              "type": "address"
            },
            {
              "internalType": "uint256",
              "name": "complaintsReported",
              "type": "uint256"
            },
            {
              "internalType": "uint256",
              "name": "KYC_count",
              "type": "uint256"
            },
            {
              "internalType": "bool",
              "name": "isAllowedToVote",
              "type": "bool"
            },
            {
              "internalType": "string",
              "name": "regNumber",
              "type": "string"
            }
          ],
          "internalType": "struct KYC.Banks",
          "name": "",
          "type": "tuple"
        }
      ],
      "stateMutability": "view",
      "type": "function"
    },
    {
      "inputs": [
        {
          "internalType": "string",
          "name": "_userName",
          "type": "string"
        }
      ],
      "name": "viewCustomer",
      "outputs": [
        {
          "components": [
            {
              "internalType": "string",
              "name": "username",
              "type": "string"
            },
            {
              "internalType": "string",
              "name": "customerData",
              "type": "string"
            },
            {
              "internalType": "bool",
              "name": "kycStatus",
              "type": "bool"
            },
            {
              "internalType": "uint256",
              "name": "downvotes",
              "type": "uint256"
            },
            {
              "internalType": "uint256",
              "name": "upvotes",
              "type": "uint256"
            },
            {
              "internalType": "address",
              "name": "bank",
              "type": "address"
            }
          ],
          "internalType": "struct KYC.Customer",
          "name": "",
          "type": "tuple"
        }
      ],
      "stateMutability": "view",
      "type": "function"
    }
  ],
  "bytecode": "0x608060405234801561001057600080fd5b50336000806101000a81548173ffffffffffffffffffffffffffffffffffffffff021916908373ffffffffffffffffffffffffffffffffffffffff160217905550613942806100606000396000f3fe608060405234801561001057600080fd5b50600436106100ea5760003560e01c80639649650c1161008c578063bd561e1411610066578063bd561e14146102cf578063ccfa8e71146102ff578063f2f4ed8f1461032f578063f72860ca1461035f576100ea565b80639649650c1461023f578063a53222681461026f578063b23852041461029f576100ea565b80635ec2a7f2116100c85780635ec2a7f21461017f578063734ae8a3146101af5780637d38d711146101df57806388cc8d8d1461020f576100ea565b8063107925bb146100ef5780633190abc01461011f578063407756421461014f575b600080fd5b61010960048036038101906101049190612a1a565b61038f565b6040516101169190612be7565b60405180910390f35b61013960048036038101906101349190612c09565b6106ee565b6040516101469190612c9d565b60405180910390f35b61016960048036038101906101649190612d10565b610a32565b6040516101769190612c9d565b60405180910390f35b61019960048036038101906101949190612d50565b610bf6565b6040516101a69190612d8c565b60405180910390f35b6101c960048036038101906101c49190612a1a565b610de2565b6040516101d69190612c9d565b60405180910390f35b6101f960048036038101906101f49190612a1a565b610fd3565b6040516102069190612c9d565b60405180910390f35b61022960048036038101906102249190612d50565b61129e565b6040516102369190612e37565b60405180910390f35b61025960048036038101906102549190612d50565b611640565b6040516102669190612c9d565b60405180910390f35b61028960048036038101906102849190612e85565b611856565b6040516102969190612ec1565b60405180910390f35b6102b960048036038101906102b49190612edc565b611895565b6040516102c69190612c9d565b60405180910390f35b6102e960048036038101906102e49190612c09565b611b51565b6040516102f69190612c9d565b60405180910390f35b61031960048036038101906103149190612f38565b611ea1565b6040516103269190612c9d565b60405180910390f35b61034960048036038101906103449190612a1a565b61227b565b6040516103569190612c9d565b60405180910390f35b61037960048036038101906103749190612c09565b612556565b6040516103869190612c9d565b60405180910390f35b6103976127c7565b3373ffffffffffffffffffffffffffffffffffffffff16600260003373ffffffffffffffffffffffffffffffffffffffff1673ffffffffffffffffffffffffffffffffffffffff16815260200190815260200160002060010160009054906101000a900473ffffffffffffffffffffffffffffffffffffffff1673ffffffffffffffffffffffffffffffffffffffff1614610467576040517f08c379a000000000000000000000000000000000000000000000000000000000815260040161045e90613046565b60405180910390fd5b8160405160200161047891906130a2565b6040516020818303038152906040528051906020012060018360405161049e91906130a2565b90815260200160405180910390206000016040516020016104bf91906131b1565b6040516020818303038152906040528051906020012014610515576040517f08c379a000000000000000000000000000000000000000000000000000000000815260040161050c90613214565b60405180910390fd5b60018260405161052591906130a2565b90815260200160405180910390206040518060c001604052908160008201805461054e906130e8565b80601f016020809104026020016040519081016040528092919081815260200182805461057a906130e8565b80156105c75780601f1061059c576101008083540402835291602001916105c7565b820191906000526020600020905b8154815290600101906020018083116105aa57829003601f168201915b505050505081526020016001820180546105e0906130e8565b80601f016020809104026020016040519081016040528092919081815260200182805461060c906130e8565b80156106595780601f1061062e57610100808354040283529160200191610659565b820191906000526020600020905b81548152906001019060200180831161063c57829003601f168201915b505050505081526020016002820160009054906101000a900460ff1615151515815260200160038201548152602001600482015481526020016005820160009054906101000a900473ffffffffffffffffffffffffffffffffffffffff1673ffffffffffffffffffffffffffffffffffffffff1673ffffffffffffffffffffffffffffffffffffffff16815250509050919050565b60003373ffffffffffffffffffffffffffffffffffffffff16600260003373ffffffffffffffffffffffffffffffffffffffff1673ffffffffffffffffffffffffffffffffffffffff16815260200190815260200160002060010160009054906101000a900473ffffffffffffffffffffffffffffffffffffffff1673ffffffffffffffffffffffffffffffffffffffff16146107c0576040517f08c379a00000000000000000000000000000000000000000000000000000000081526004016107b790613046565b60405180910390fd5b816040516020016107d191906130a2565b604051602081830303815290604052805190602001206001846040516107f791906130a2565b908152602001604051809103902060010160405160200161081891906131b1565b604051602081830303815290604052805190602001200361086e576040517f08c379a000000000000000000000000000000000000000000000000000000000815260040161086590613280565b60405180910390fd5b8160405160200161087f91906130a2565b604051602081830303815290604052805190602001206004846040516108a591906130a2565b90815260200160405180910390206002016040516020016108c691906131b1565b604051602081830303815290604052805190602001201461091c576040517f08c379a0000000000000000000000000000000000000000000000000000000008152600401610913906132ec565b60405180910390fd5b8260018460405161092d91906130a2565b9081526020016040518091039020600001908161094a91906134a3565b508160018460405161095c91906130a2565b9081526020016040518091039020600101908161097991906134a3565b50600060018460405161098c91906130a2565b90815260200160405180910390206003018190555060006001846040516109b391906130a2565b908152602001604051809103902060040181905550336001846040516109d991906130a2565b908152602001604051809103902060050160006101000a81548173ffffffffffffffffffffffffffffffffffffffff021916908373ffffffffffffffffffffffffffffffffffffffff1602179055506001905092915050565b60003373ffffffffffffffffffffffffffffffffffffffff1660008054906101000a900473ffffffffffffffffffffffffffffffffffffffff1673ffffffffffffffffffffffffffffffffffffffff1614610ac2576040517f08c379a0000000000000000000000000000000000000000000000000000000008152600401610ab9906135e7565b60405180910390fd5b8273ffffffffffffffffffffffffffffffffffffffff16600260008573ffffffffffffffffffffffffffffffffffffffff1673ffffffffffffffffffffffffffffffffffffffff16815260200190815260200160002060010160009054906101000a900473ffffffffffffffffffffffffffffffffffffffff1673ffffffffffffffffffffffffffffffffffffffff1614610b92576040517f08c379a0000000000000000000000000000000000000000000000000000000008152600401610b8990613653565b60405180910390fd5b81600260008573ffffffffffffffffffffffffffffffffffffffff1673ffffffffffffffffffffffffffffffffffffffff16815260200190815260200160002060040160006101000a81548160ff0219169083151502179055506001905092915050565b60003373ffffffffffffffffffffffffffffffffffffffff16600260003373ffffffffffffffffffffffffffffffffffffffff1673ffffffffffffffffffffffffffffffffffffffff16815260200190815260200160002060010160009054906101000a900473ffffffffffffffffffffffffffffffffffffffff1673ffffffffffffffffffffffffffffffffffffffff1614610cc8576040517f08c379a0000000000000000000000000000000000000000000000000000000008152600401610cbf90613046565b60405180910390fd5b8173ffffffffffffffffffffffffffffffffffffffff16600260008473ffffffffffffffffffffffffffffffffffffffff1673ffffffffffffffffffffffffffffffffffffffff16815260200190815260200160002060010160009054906101000a900473ffffffffffffffffffffffffffffffffffffffff1673ffffffffffffffffffffffffffffffffffffffff1614610d98576040517f08c379a0000000000000000000000000000000000000000000000000000000008152600401610d8f906136bf565b60405180910390fd5b600260008373ffffffffffffffffffffffffffffffffffffffff1673ffffffffffffffffffffffffffffffffffffffff168152602001908152602001600020600201549050919050565b60003373ffffffffffffffffffffffffffffffffffffffff16600260003373ffffffffffffffffffffffffffffffffffffffff1673ffffffffffffffffffffffffffffffffffffffff16815260200190815260200160002060010160009054906101000a900473ffffffffffffffffffffffffffffffffffffffff1673ffffffffffffffffffffffffffffffffffffffff1614610eb4576040517f08c379a0000000000000000000000000000000000000000000000000000000008152600401610eab90613046565b60405180910390fd5b81604051602001610ec591906130a2565b60405160208183030381529060405280519060200120600483604051610eeb91906130a2565b9081526020016040518091039020600001604051602001610f0c91906131b1565b6040516020818303038152906040528051906020012014610f62576040517f08c379a0000000000000000000000000000000000000000000000000000000008152600401610f59906132ec565b60405180910390fd5b600482604051610f7291906130a2565b908152602001604051809103902060008082016000610f919190612815565b6001820160006101000a81549073ffffffffffffffffffffffffffffffffffffffff0219169055600282016000610fc89190612815565b505060019050919050565b60003373ffffffffffffffffffffffffffffffffffffffff16600260003373ffffffffffffffffffffffffffffffffffffffff1673ffffffffffffffffffffffffffffffffffffffff16815260200190815260200160002060010160009054906101000a900473ffffffffffffffffffffffffffffffffffffffff1673ffffffffffffffffffffffffffffffffffffffff16146110a5576040517f08c379a000000000000000000000000000000000000000000000000000000000815260040161109c90613046565b60405180910390fd5b816040516020016110b691906130a2565b604051602081830303815290604052805190602001206001836040516110dc91906130a2565b90815260200160405180910390206000016040516020016110fd91906131b1565b6040516020818303038152906040528051906020012014611153576040517f08c379a000000000000000000000000000000000000000000000000000000000815260040161114a90613214565b60405180910390fd5b60011515600260003373ffffffffffffffffffffffffffffffffffffffff1673ffffffffffffffffffffffffffffffffffffffff16815260200190815260200160002060040160009054906101000a900460ff161515146111e9576040517f08c379a00000000000000000000000000000000000000000000000000000000081526004016111e09061372b565b60405180910390fd5b600180836040516111fa91906130a2565b9081526020016040518091039020600301600082825461121a919061377a565b925050819055506003808054905061123291906137dd565b60018360405161124291906130a2565b908152602001604051809103902060030154111561129557600060018360405161126c91906130a2565b908152602001604051809103902060020160006101000a81548160ff0219169083151502179055505b60019050919050565b6112a6612855565b3373ffffffffffffffffffffffffffffffffffffffff16600260003373ffffffffffffffffffffffffffffffffffffffff1673ffffffffffffffffffffffffffffffffffffffff16815260200190815260200160002060010160009054906101000a900473ffffffffffffffffffffffffffffffffffffffff1673ffffffffffffffffffffffffffffffffffffffff1614611376576040517f08c379a000000000000000000000000000000000000000000000000000000000815260040161136d90613046565b60405180910390fd5b8173ffffffffffffffffffffffffffffffffffffffff16600260008473ffffffffffffffffffffffffffffffffffffffff1673ffffffffffffffffffffffffffffffffffffffff16815260200190815260200160002060010160009054906101000a900473ffffffffffffffffffffffffffffffffffffffff1673ffffffffffffffffffffffffffffffffffffffff1614611446576040517f08c379a000000000000000000000000000000000000000000000000000000000815260040161143d906136bf565b60405180910390fd5b600260008373ffffffffffffffffffffffffffffffffffffffff1673ffffffffffffffffffffffffffffffffffffffff1681526020019081526020016000206040518060c00160405290816000820180546114a0906130e8565b80601f01602080910402602001604051908101604052809291908181526020018280546114cc906130e8565b80156115195780601f106114ee57610100808354040283529160200191611519565b820191906000526020600020905b8154815290600101906020018083116114fc57829003601f168201915b505050505081526020016001820160009054906101000a900473ffffffffffffffffffffffffffffffffffffffff1673ffffffffffffffffffffffffffffffffffffffff1673ffffffffffffffffffffffffffffffffffffffff16815260200160028201548152602001600382015481526020016004820160009054906101000a900460ff161515151581526020016005820180546115b7906130e8565b80601f01602080910402602001604051908101604052809291908181526020018280546115e3906130e8565b80156116305780601f1061160557610100808354040283529160200191611630565b820191906000526020600020905b81548152906001019060200180831161161357829003601f168201915b5050505050815250509050919050565b60003373ffffffffffffffffffffffffffffffffffffffff1660008054906101000a900473ffffffffffffffffffffffffffffffffffffffff1673ffffffffffffffffffffffffffffffffffffffff16146116d0576040517f08c379a00000000000000000000000000000000000000000000000000000000081526004016116c7906135e7565b60405180910390fd5b8173ffffffffffffffffffffffffffffffffffffffff16600260008473ffffffffffffffffffffffffffffffffffffffff1673ffffffffffffffffffffffffffffffffffffffff16815260200190815260200160002060010160009054906101000a900473ffffffffffffffffffffffffffffffffffffffff1673ffffffffffffffffffffffffffffffffffffffff16146117a0576040517f08c379a000000000000000000000000000000000000000000000000000000000815260040161179790613653565b60405180910390fd5b600260008373ffffffffffffffffffffffffffffffffffffffff1673ffffffffffffffffffffffffffffffffffffffff168152602001908152602001600020600080820160006117f09190612815565b6001820160006101000a81549073ffffffffffffffffffffffffffffffffffffffff0219169055600282016000905560038201600090556004820160006101000a81549060ff021916905560058201600061184b9190612815565b505060019050919050565b6003818154811061186657600080fd5b906000526020600020016000915054906101000a900473ffffffffffffffffffffffffffffffffffffffff1681565b60003373ffffffffffffffffffffffffffffffffffffffff16600260003373ffffffffffffffffffffffffffffffffffffffff1673ffffffffffffffffffffffffffffffffffffffff16815260200190815260200160002060010160009054906101000a900473ffffffffffffffffffffffffffffffffffffffff1673ffffffffffffffffffffffffffffffffffffffff1614611967576040517f08c379a000000000000000000000000000000000000000000000000000000000815260040161195e90613046565b60405180910390fd5b8273ffffffffffffffffffffffffffffffffffffffff16600260008573ffffffffffffffffffffffffffffffffffffffff1673ffffffffffffffffffffffffffffffffffffffff16815260200190815260200160002060010160009054906101000a900473ffffffffffffffffffffffffffffffffffffffff1673ffffffffffffffffffffffffffffffffffffffff1614611a37576040517f08c379a0000000000000000000000000000000000000000000000000000000008152600401611a2e906136bf565b60405180910390fd5b6001600260008573ffffffffffffffffffffffffffffffffffffffff1673ffffffffffffffffffffffffffffffffffffffff1681526020019081526020016000206002016000828254611a8a919061377a565b9250508190555060038080549050611aa291906137dd565b600260008573ffffffffffffffffffffffffffffffffffffffff1673ffffffffffffffffffffffffffffffffffffffff168152602001908152602001600020600201541115611b47576000600260008573ffffffffffffffffffffffffffffffffffffffff1673ffffffffffffffffffffffffffffffffffffffff16815260200190815260200160002060040160006101000a81548160ff0219169083151502179055505b6001905092915050565b60003373ffffffffffffffffffffffffffffffffffffffff16600260003373ffffffffffffffffffffffffffffffffffffffff1673ffffffffffffffffffffffffffffffffffffffff16815260200190815260200160002060010160009054906101000a900473ffffffffffffffffffffffffffffffffffffffff1673ffffffffffffffffffffffffffffffffffffffff1614611c23576040517f08c379a0000000000000000000000000000000000000000000000000000000008152600401611c1a90613046565b60405180910390fd5b81604051602001611c3491906130a2565b60405160208183030381529060405280519060200120600484604051611c5a91906130a2565b9081526020016040518091039020600201604051602001611c7b91906131b1565b6040516020818303038152906040528051906020012003611cd1576040517f08c379a0000000000000000000000000000000000000000000000000000000008152600401611cc89061385a565b60405180910390fd5b81604051602001611ce291906130a2565b60405160208183030381529060405280519060200120600184604051611d0891906130a2565b9081526020016040518091039020600101604051602001611d2991906131b1565b6040516020818303038152906040528051906020012003611d7f576040517f08c379a0000000000000000000000000000000000000000000000000000000008152600401611d7690613280565b60405180910390fd5b82600484604051611d9091906130a2565b90815260200160405180910390206000019081611dad91906134a3565b5033600484604051611dbf91906130a2565b908152602001604051809103902060010160006101000a81548173ffffffffffffffffffffffffffffffffffffffff021916908373ffffffffffffffffffffffffffffffffffffffff16021790555081600484604051611e1f91906130a2565b90815260200160405180910390206002019081611e3c91906134a3565b506001600260003373ffffffffffffffffffffffffffffffffffffffff1673ffffffffffffffffffffffffffffffffffffffff1681526020019081526020016000206003016000828254611e90919061377a565b925050819055506001905092915050565b60003373ffffffffffffffffffffffffffffffffffffffff1660008054906101000a900473ffffffffffffffffffffffffffffffffffffffff1673ffffffffffffffffffffffffffffffffffffffff1614611f31576040517f08c379a0000000000000000000000000000000000000000000000000000000008152600401611f28906135e7565b60405180910390fd5b8273ffffffffffffffffffffffffffffffffffffffff16600260008573ffffffffffffffffffffffffffffffffffffffff1673ffffffffffffffffffffffffffffffffffffffff16815260200190815260200160002060010160009054906101000a900473ffffffffffffffffffffffffffffffffffffffff1673ffffffffffffffffffffffffffffffffffffffff1603612001576040517f08c379a0000000000000000000000000000000000000000000000000000000008152600401611ff8906138ec565b60405180910390fd5b83600260008573ffffffffffffffffffffffffffffffffffffffff1673ffffffffffffffffffffffffffffffffffffffff168152602001908152602001600020600001908161205091906134a3565b5082600260008573ffffffffffffffffffffffffffffffffffffffff1673ffffffffffffffffffffffffffffffffffffffff16815260200190815260200160002060010160006101000a81548173ffffffffffffffffffffffffffffffffffffffff021916908373ffffffffffffffffffffffffffffffffffffffff1602179055506000600260008573ffffffffffffffffffffffffffffffffffffffff1673ffffffffffffffffffffffffffffffffffffffff168152602001908152602001600020600201819055506000600260008573ffffffffffffffffffffffffffffffffffffffff1673ffffffffffffffffffffffffffffffffffffffff168152602001908152602001600020600301819055506001600260008573ffffffffffffffffffffffffffffffffffffffff1673ffffffffffffffffffffffffffffffffffffffff16815260200190815260200160002060040160006101000a81548160ff02191690831515021790555081600260008573ffffffffffffffffffffffffffffffffffffffff1673ffffffffffffffffffffffffffffffffffffffff168152602001908152602001600020600501908161220c91906134a3565b506003839080600181540180825580915050600190039060005260206000200160009091909190916101000a81548173ffffffffffffffffffffffffffffffffffffffff021916908373ffffffffffffffffffffffffffffffffffffffff160217905550600190509392505050565b60003373ffffffffffffffffffffffffffffffffffffffff16600260003373ffffffffffffffffffffffffffffffffffffffff1673ffffffffffffffffffffffffffffffffffffffff16815260200190815260200160002060010160009054906101000a900473ffffffffffffffffffffffffffffffffffffffff1673ffffffffffffffffffffffffffffffffffffffff161461234d576040517f08c379a000000000000000000000000000000000000000000000000000000000815260040161234490613046565b60405180910390fd5b8160405160200161235e91906130a2565b6040516020818303038152906040528051906020012060018360405161238491906130a2565b90815260200160405180910390206000016040516020016123a591906131b1565b60405160208183030381529060405280519060200120146123fb576040517f08c379a00000000000000000000000000000000000000000000000000000000081526004016123f290613214565b60405180910390fd5b60011515600260003373ffffffffffffffffffffffffffffffffffffffff1673ffffffffffffffffffffffffffffffffffffffff16815260200190815260200160002060040160009054906101000a900460ff16151514612491576040517f08c379a00000000000000000000000000000000000000000000000000000000081526004016124889061372b565b60405180910390fd5b600180836040516124a291906130a2565b908152602001604051809103902060040160008282546124c2919061377a565b925050819055506001826040516124d991906130a2565b9081526020016040518091039020600301546001836040516124fb91906130a2565b908152602001604051809103902060040154111561254d576001808360405161252491906130a2565b908152602001604051809103902060020160006101000a81548160ff0219169083151502179055505b60019050919050565b60003373ffffffffffffffffffffffffffffffffffffffff16600260003373ffffffffffffffffffffffffffffffffffffffff1673ffffffffffffffffffffffffffffffffffffffff16815260200190815260200160002060010160009054906101000a900473ffffffffffffffffffffffffffffffffffffffff1673ffffffffffffffffffffffffffffffffffffffff1614612628576040517f08c379a000000000000000000000000000000000000000000000000000000000815260040161261f90613046565b60405180910390fd5b8260405160200161263991906130a2565b6040516020818303038152906040528051906020012060018460405161265f91906130a2565b908152602001604051809103902060000160405160200161268091906131b1565b60405160208183030381529060405280519060200120146126d6576040517f08c379a00000000000000000000000000000000000000000000000000000000081526004016126cd90613214565b60405180910390fd5b816001846040516126e791906130a2565b9081526020016040518091039020600101908161270491906134a3565b50600060018460405161271791906130a2565b908152602001604051809103902060030181905550600060018460405161273e91906130a2565b9081526020016040518091039020600401819055503360018460405161276491906130a2565b908152602001604051809103902060050160006101000a81548173ffffffffffffffffffffffffffffffffffffffff021916908373ffffffffffffffffffffffffffffffffffffffff1602179055506127bc83610de2565b506001905092915050565b6040518060c0016040528060608152602001606081526020016000151581526020016000815260200160008152602001600073ffffffffffffffffffffffffffffffffffffffff1681525090565b508054612821906130e8565b6000825580601f106128335750612852565b601f01602090049060005260206000209081019061285191906128a3565b5b50565b6040518060c0016040528060608152602001600073ffffffffffffffffffffffffffffffffffffffff1681526020016000815260200160008152602001600015158152602001606081525090565b5b808211156128bc5760008160009055506001016128a4565b5090565b6000604051905090565b600080fd5b600080fd5b600080fd5b600080fd5b6000601f19601f8301169050919050565b7f4e487b7100000000000000000000000000000000000000000000000000000000600052604160045260246000fd5b612927826128de565b810181811067ffffffffffffffff82111715612946576129456128ef565b5b80604052505050565b60006129596128c0565b9050612965828261291e565b919050565b600067ffffffffffffffff821115612985576129846128ef565b5b61298e826128de565b9050602081019050919050565b82818337600083830152505050565b60006129bd6129b88461296a565b61294f565b9050828152602081018484840111156129d9576129d86128d9565b5b6129e484828561299b565b509392505050565b600082601f830112612a0157612a006128d4565b5b8135612a118482602086016129aa565b91505092915050565b600060208284031215612a3057612a2f6128ca565b5b600082013567ffffffffffffffff811115612a4e57612a4d6128cf565b5b612a5a848285016129ec565b91505092915050565b600081519050919050565b600082825260208201905092915050565b60005b83811015612a9d578082015181840152602081019050612a82565b60008484015250505050565b6000612ab482612a63565b612abe8185612a6e565b9350612ace818560208601612a7f565b612ad7816128de565b840191505092915050565b60008115159050919050565b612af781612ae2565b82525050565b6000819050919050565b612b1081612afd565b82525050565b600073ffffffffffffffffffffffffffffffffffffffff82169050919050565b6000612b4182612b16565b9050919050565b612b5181612b36565b82525050565b600060c0830160008301518482036000860152612b748282612aa9565b91505060208301518482036020860152612b8e8282612aa9565b9150506040830151612ba36040860182612aee565b506060830151612bb66060860182612b07565b506080830151612bc96080860182612b07565b5060a0830151612bdc60a0860182612b48565b508091505092915050565b60006020820190508181036000830152612c018184612b57565b905092915050565b60008060408385031215612c2057612c1f6128ca565b5b600083013567ffffffffffffffff811115612c3e57612c3d6128cf565b5b612c4a858286016129ec565b925050602083013567ffffffffffffffff811115612c6b57612c6a6128cf565b5b612c77858286016129ec565b9150509250929050565b600060ff82169050919050565b612c9781612c81565b82525050565b6000602082019050612cb26000830184612c8e565b92915050565b612cc181612b36565b8114612ccc57600080fd5b50565b600081359050612cde81612cb8565b92915050565b612ced81612ae2565b8114612cf857600080fd5b50565b600081359050612d0a81612ce4565b92915050565b60008060408385031215612d2757612d266128ca565b5b6000612d3585828601612ccf565b9250506020612d4685828601612cfb565b9150509250929050565b600060208284031215612d6657612d656128ca565b5b6000612d7484828501612ccf565b91505092915050565b612d8681612afd565b82525050565b6000602082019050612da16000830184612d7d565b92915050565b600060c0830160008301518482036000860152612dc48282612aa9565b9150506020830151612dd96020860182612b48565b506040830151612dec6040860182612b07565b506060830151612dff6060860182612b07565b506080830151612e126080860182612aee565b5060a083015184820360a0860152612e2a8282612aa9565b9150508091505092915050565b60006020820190508181036000830152612e518184612da7565b905092915050565b612e6281612afd565b8114612e6d57600080fd5b50565b600081359050612e7f81612e59565b92915050565b600060208284031215612e9b57612e9a6128ca565b5b6000612ea984828501612e70565b91505092915050565b612ebb81612b36565b82525050565b6000602082019050612ed66000830184612eb2565b92915050565b60008060408385031215612ef357612ef26128ca565b5b6000612f0185828601612ccf565b925050602083013567ffffffffffffffff811115612f2257612f216128cf565b5b612f2e858286016129ec565b9150509250929050565b600080600060608486031215612f5157612f506128ca565b5b600084013567ffffffffffffffff811115612f6f57612f6e6128cf565b5b612f7b868287016129ec565b9350506020612f8c86828701612ccf565b925050604084013567ffffffffffffffff811115612fad57612fac6128cf565b5b612fb9868287016129ec565b9150509250925092565b600082825260208201905092915050565b7f556e61757468656e7469636174656420726571756573746f72212042616e6b2060008201527f6e6f74206265656e2061646465642062792061646d696e2e0000000000000000602082015250565b6000613030603883612fc3565b915061303b82612fd4565b604082019050919050565b6000602082019050818103600083015261305f81613023565b9050919050565b600081905092915050565b600061307c82612a63565b6130868185613066565b9350613096818560208601612a7f565b80840191505092915050565b60006130ae8284613071565b915081905092915050565b7f4e487b7100000000000000000000000000000000000000000000000000000000600052602260045260246000fd5b6000600282049050600182168061310057607f821691505b602082108103613113576131126130b9565b5b50919050565b60008190508160005260206000209050919050565b6000815461313b816130e8565b6131458186613066565b945060018216600081146131605760018114613175576131a8565b60ff19831686528115158202860193506131a8565b61317e85613119565b60005b838110156131a057815481890152600182019150602081019050613181565b838801955050505b50505092915050565b60006131bd828461312e565b915081905092915050565b7f437573746f6d6572206e6f742070726573656e7420696e20746865206c697374600082015250565b60006131fe602083612fc3565b9150613209826131c8565b602082019050919050565b6000602082019050818103600083015261322d816131f1565b9050919050565b7f437573746f6d657220697320616c72656164792070726573656e740000000000600082015250565b600061326a601b83612fc3565b915061327582613234565b602082019050919050565b600060208201905081810360008301526132998161325d565b9050919050565b7f506c6561736520646f2061204b59432072657175657374206265666f72650000600082015250565b60006132d6601e83612fc3565b91506132e1826132a0565b602082019050919050565b60006020820190508181036000830152613305816132c9565b9050919050565b60006020601f8301049050919050565b600082821b905092915050565b6000600883026133597fffffffffffffffffffffffffffffffffffffffffffffffffffffffffffffffff8261331c565b613363868361331c565b95508019841693508086168417925050509392505050565b6000819050919050565b60006133a061339b61339684612afd565b61337b565b612afd565b9050919050565b6000819050919050565b6133ba83613385565b6133ce6133c6826133a7565b848454613329565b825550505050565b600090565b6133e36133d6565b6133ee8184846133b1565b505050565b5b81811015613412576134076000826133db565b6001810190506133f4565b5050565b601f8211156134575761342881613119565b6134318461330c565b81016020851015613440578190505b61345461344c8561330c565b8301826133f3565b50505b505050565b600082821c905092915050565b600061347a6000198460080261345c565b1980831691505092915050565b60006134938383613469565b9150826002028217905092915050565b6134ac82612a63565b67ffffffffffffffff8111156134c5576134c46128ef565b5b6134cf82546130e8565b6134da828285613416565b600060209050601f83116001811461350d57600084156134fb578287015190505b6135058582613487565b86555061356d565b601f19841661351b86613119565b60005b828110156135435784890151825560018201915060208501945060208101905061351e565b86831015613560578489015161355c601f891682613469565b8355505b6001600288020188555050505b505050505050565b7f4f6e6c792061646d696e20697320616c6c6f77656420746f206f70657261746560008201527f20746869732066756e6374696f6e616c69747900000000000000000000000000602082015250565b60006135d1603383612fc3565b91506135dc82613575565b604082019050919050565b60006020820190508181036000830152613600816135c4565b9050919050565b7f4164642042616e6b204669727374000000000000000000000000000000000000600082015250565b600061363d600e83612fc3565b915061364882613607565b602082019050919050565b6000602082019050818103600083015261366c81613630565b9050919050565b7f42616e6b20646f6573206e6f7420657869737400000000000000000000000000600082015250565b60006136a9601383612fc3565b91506136b482613673565b602082019050919050565b600060208201905081810360008301526136d88161369c565b9050919050565b7f4661756c74792042616e6b000000000000000000000000000000000000000000600082015250565b6000613715600b83612fc3565b9150613720826136df565b602082019050919050565b6000602082019050818103600083015261374481613708565b9050919050565b7f4e487b7100000000000000000000000000000000000000000000000000000000600052601160045260246000fd5b600061378582612afd565b915061379083612afd565b92508282019050808211156137a8576137a761374b565b5b92915050565b7f4e487b7100000000000000000000000000000000000000000000000000000000600052601260045260246000fd5b60006137e882612afd565b91506137f383612afd565b925082613803576138026137ae565b5b828204905092915050565b7f4b5943205265717565737420616c726561647920696e2070726f636573730000600082015250565b6000613844601e83612fc3565b915061384f8261380e565b602082019050919050565b6000602082019050818103600083015261387381613837565b9050919050565b7f42616e6b20776974682073616d65206164647265737320616c7265616479206560008201527f7869737473000000000000000000000000000000000000000000000000000000602082015250565b60006138d6602583612fc3565b91506138e18261387a565b604082019050919050565b60006020820190508181036000830152613905816138c9565b905091905056fea264697066735822122042b527788bb86e3295ab01cf6d275274cf971a0396c2dcda458b3ac760124dbe64736f6c63430008110033",
  "linkReferences": {},
  "deployedLinkReferences": {}
}